:107000005FC0000078C0000076C0000074C00000BF
:1070100072C0000070C000006EC000006CC00000B4
:107020006AC0000068C00000C7C4000064C000005F
:1070300062C0000060C000005EC000005CC00000D4
:107040005AC00000E6C0000056C0000054C0000056
:1070500052C0000050C000004EC000004CC00000F4
:107060004AC0000048C0000046C0000044C0000004
:1070700042C0000040C000003EC000003CC0000014
:107080003AC0000038C0000036C0000034C0000024
:1070900032C0000030C000002EC000002CC0000034
:1070A0002AC0000028C0000026C000004B3E643EFD
:1070B0000B3F643E0B3F9C3EBE3E0B3FDE3EF03E30
:1070C00011241FBECFEFDAE0DEBFCDBF11E0A0E09C
:1070D000B1E0E0EAFEE702C005900D92AE39B107DB
:1070E000D9F721E0AEE9B1E001C01D92A43BB2079F
:1070F000E1F75CD3D3C684CF84E08093E90080912C
:10710000E80085FD0DC08091E8008B778093E80052
:107110008091E80082FDF3CF8EB38111F9CF02C0D8
:107120008091F100089593E09093E9009091E80038
:1071300095FF0AC08093F1005D9884E690E09093FB
:10714000A3018093A20108959091E8009E77909307
:10715000E8009091E80090FDEDCF9EB39111F9CF3A
:107160000895F89410926F0010928100109285009B
:107170001092840081E085BF15BE47985D9A289AD9
:107180000C94000008952091A8013091A9012F5F6F
:107190003F4F3093A9012093A801832F37FF02C0EE
:1071A0008EEF831B880F821710F447980895479A33
:1071B000089584B7877F84BF0FB6F894A89580910F
:1071C0006000886180936000109260000FBE90E8BC
:1071D00080E00FB6F89490936100809361000FBE39
:1071E00081E085BF82E085BF3F9A209A559AE1E60B
:1071F000F0E09083108247985D9A289A1092890057
:107200009AEF9093880080936F0083E080938100D1
:10721000BBC31F920F920FB60F9211242F938F931F
:107220009F93EF93FF9310928500109284008091BA
:10723000A2019091A301009741F001979093A301BF
:107240008093A201892B09F45D9A8091A00190910D
:10725000A101009741F001979093A1018093A001B3
:10726000892B09F4289AE0E0F0E085919491019649
:1072700049F080919E0190919F01019690939F010A
:1072800080939E01FF91EF919F918F912F910F908D
:107290000FBE0F901F90189542E061EC82E009D379
:1072A00042E161E883E005D342E160E884E001C3A4
:1072B0008091AC01982F9F77913239F59091AD0173
:1072C000903291F0913209F5813AF9F48091E80019
:1072D000877F8093E80067E070E083E091E01DD451
:1072E0008091E8008B770FC0813279F48091E800BB
:1072F000877F8093E80067E070E083E091E06AD4E4
:107300008091E8008E778093E80008956F927F92D5
:107310008F929F92AF92BF92CF92DF92EF92FF92A5
:107320000F931F93CF93DF9384E08093E9008091C4
:10733000E80082FF2CC2289884E690E09093A10197
:107340008093A001D9DEC82F853481F48CE49DE1BF
:1073500090939F0180939E0107B600FCFDCFF999A1
:10736000FECF81E180935700E89503C0843521F476
:10737000C3DE8DE0D8DEE2C18C34D9F38035C9F3A9
:10738000843721F484E4CFDE80E0F4CF813611F439
:1073900089E5F0CF813491F4AFDEC82FADDE90E007
:1073A000880F991F2C2F30E0322F2227330F822B8A
:1073B000932B092E000CAA0BBB0B94C1803711F440
:1073C00083E5D8CF833549F4C4E9D1E01C2F195F98
:1073D0008991A9DE1C13FCCFB1C1863521F481E36C
:1073E000A2DE80E3C7CF833731F487E89CDE85E9EE
:1073F0009ADE8EE1BFCF8536B9F4E0E0F0E083E0BD
:1074000095E080935700E89507B600FCFDCF909378
:107410005700E89507B600FCFDCFE058FF4FE11597
:1074200020E7F20771F7A5CF823719F4E1E0F0E029
:107430000EC0863419F4E0E0F0E009C08E3419F48F
:10744000E3E0F0E004C0813539F4E2E0F0E089E007
:107450008093570084918ECF823631F489E563DEC4
:1074600080E061DE80E886CF823419F0873609F04B
:10747000D1C010929F0110929E013EDE082F3CDE8B
:10748000D82F3ADE182F8BEB810F823010F08FE36C
:1074900071CF2D2F30E0302B10926F00C73609F0DE
:1074A00043C081E180935700E895E90100E0BB24E7
:1074B000B394209709F4AAC0C090A401D090A5016C
:1074C000E090A601F090A7011634B9F4E02FF0E0A7
:1074D000EC29FD29849127DE002369F082E0C80EA3
:1074E000D11CE11CF11CC092A401D092A501E09234
:1074F000A601F092A7010B2515C0D701C601B695CC
:10750000A79597958795B4D40EDEE2E0CE0ED11CF8
:10751000E11CF11CC092A401D092A501E092A60149
:10752000F092A7012197C5CF8090A4019090A5016A
:10753000A090A601B090A701163441F483E0F401B5
:1075400080935700E89507B600FCFDCFE901712C48
:1075500000E066246394209709F44CC0163431F59A
:10756000002301F1C090A401D090A501E090A601F4
:10757000F090A701C1DD272D30E0382BF60109017D
:1075800060925700E8951124F2E0CF0ED11CE11C67
:10759000F11CC092A401D092A501E092A601F09244
:1075A000A70102C0A9DD782E062522C0A5DD682F1F
:1075B0008091A4019091A501A091A601B091A7018D
:1075C000B695A795979587955BD48091A4019091E6
:1075D000A501A091A601B091A7010296A11DB11D20
:1075E0008093A4019093A501A093A601B093A70155
:1075F0002197B1CF163441F485E0F4018093570010
:10760000E89507B600FCFDCF8DE08DDD82E080932C
:107610006F0094C0833471F4C091A401D091A5018E
:107620006BDD90E021E0FE010C0120935700E8950E
:1076300011249FCE833601F5C090A401D090A501FE
:10764000E090A601F090A70157DDF601E16090E01F
:1076500021E00C0120935700E8951124F2E0CF0EB1
:10766000D11CE11CF11CC092A401D092A501E092B2
:10767000A601F092A7017DCE8D3661F4E091A401C0
:10768000F091A50185E080935700E89507B600FCCE
:10769000FDCF6FCE823551F4E091A401F091A501A8
:1076A000C591D4918D2F3FDD8C2F64CE843419F594
:1076B00023DD682F8091A4019091A501A091A601DE
:1076C000B091A701B695A79597958795D9D3809145
:1076D000A4019091A501A091A601B091A7010296E5
:1076E000A11DB11D8093A4019093A501A093A601B3
:1076F000B093A7013ECE8436F1F4C090A401D0909F
:10770000A501E090A601F090A701D701C601B695AA
:10771000A79597958795ACD306DD22E0C20ED11CC4
:10772000E11CF11CC092A401D092A501E092A60137
:10773000F092A70103C08B3109F0A9CE83E08093BA
:10774000E9009091E8008091E8008E778093E8004E
:1077500095FD11C08091E80080FD04C08EB38111B9
:10776000F9CF15C08091E8008E778093E80003C0C0
:107770008EB3882361F08091E80080FFF9CF84E028
:107780008093E9008091E8008B778093E800DF9197
:10779000CF911F910F91FF90EF90DF90CF90BF900E
:1077A000AF909F908F907F906F90089520910008E8
:1077B00030910108109201081092000884B714BE9D
:1077C0000FB6F894A895909160009861909360002E
:1077D000109260000FBE81FD1AC080FF09C0E0E07A
:1077E000F0E0459154914F3F5F4F11F0BADC0FC06C
:1077F00083FF0DC080910001909101012817390786
:1078000031F0E0E0F0E085919491019679F7D1DCD8
:10781000789410929F0110929E018091020188231A
:1078200069F074DD0ED380919E0190919F018134A7
:107830009F4110F010920201A6DCEFCF8091E00092
:1078400081608093E0008DDC80E090E00895292F36
:1078500030E02230310559F02330310569F0213014
:107860003105F9F482E190E022E831E01EC08EE3B8
:1078700090E024E431E019C0882349F0813061F0C0
:10788000823079F488E190E02AE031E00EC084E0B3
:1078900090E020E431E009C082E290E02CE131E0A8
:1078A00004C080E090E020E030E0FA0131832083E2
:1078B00008958093E900EBEEF0E0808181608083A1
:1078C000EDEEF0E010826093EC0040838091EE00DA
:1078D000881F8827881F08958091AC0187FF0FC0FB
:1078E0008091E80082FD04C08EB38111F9CF10C0F1
:1078F0008091E8008B770AC08EB3882349F080918D
:10790000E80080FFF9CF8091E8008E778093E8004F
:1079100008950F931F93CF93DF9341D048D0C8EDC4
:10792000D0E088818F778883888180688883888188
:107930008F7D888319BC1EBA1092AA0100EE10E058
:10794000F80180818B7F808388818160888342E019
:1079500060E080E0AEDFE1EEF0E080818E7F80834A
:10796000E2EEF0E0808181608083808188608083A6
:10797000F80180818E7F8083888180618883DF9198
:10798000CF911F910F910895E7EDF0E08081816024
:1079900080838AE482BF81E08093AB01BACFE8EDB7
:1079A000F0E080818E7F80831092E2000895109233
:1079B000DA001092E10008951F920F920FB60F9215
:1079C00011242F933F934F935F936F937F938F93E4
:1079D0009F93AF93BF93EF93FF938091DA0080FF63
:1079E0001BC08091D80080FF17C08091DA008E7F85
:1079F0008093DA008091D90080FF0BC080E189BDBF
:107A000082E189BD09B400FEFDCF81E08EBB18D2B2
:107A100003C019BC1EBA14D28091E10080FF17C0C8
:107A20008091E20080FF13C08091E2008E7F8093FE
:107A3000E2008091E20080618093E2008091D800B2
:107A400080628093D80019BC85E08EBBF9D180910B
:107A5000E10084FF2CC08091E20084FF28C080E117
:107A600089BD82E189BD09B400FEFDCF8091D800B7
:107A70008F7D8093D8008091E1008F7E8093E1001C
:107A80008091E2008F7E8093E2008091E20081602D
:107A90008093E2008091AA01811106C08091E300E9
:107AA00087FD02C081E001C084E08EBBC9D1809116
:107AB000E10083FF21C08091E20083FF1DC080911F
:107AC000E100877F8093E10082E08EBB1092AA01E3
:107AD0008091E1008E7F8093E1008091E2008E7FB3
:107AE0008093E2008091E20080618093E20042E0B6
:107AF00060E080E0DEDEA4D1FF91EF91BF91AF9115
:107B00009F918F917F916F915F914F913F912F91B5
:107B10000F900FBE0F901F9018952091B2013091D9
:107B2000B3012617370748F06115710539F4209124
:107B3000E8002E772093E80001C0B90140E061150C
:107B40007105A1F12EB3222309F440C0253009F4B8
:107B50003FC02091E80023FD37C02091E80022FDBE
:107B60002DC02091E80020FFEACF4091F300209142
:107B7000F20030E0342BFC01CF016115710559F0A2
:107B80002830310540F481918093F10061507109F2
:107B90002F5F3F4FF1CF41E02830310509F040E041
:107BA0002091E8002E772093E800C9CF4111CACF79
:107BB00005C08EB3882351F0853051F08091E800E4
:107BC00082FFF7CF80E0089581E0089582E0089574
:107BD00083E008956115710529F42091E8002B7761
:107BE0002093E800FC016115710531F18EB3882303
:107BF00059F1853059F18091E80083FD23C08091CF
:107C0000E80082FFF0CF2091F3008091F20090E035
:107C1000922B892B31F08091F10081936150710991
:107C200091F78091E8008B778093E800DCCF8EB3EA
:107C3000882351F0853051F08091E80080FFF7CF24
:107C400080E0089581E0089582E0089583E008953A
:107C50000F931F93CF93DF9300D0CDB7DEB7ECEA3D
:107C6000F1E088E08E0F9091F10091938E13FBCF9D
:107C70001FDB8091E80083FFCEC08091AC01909122
:107C8000AD01492F50E04A30510508F0C4C0FA0157
:107C9000EA5AF74CE7C0823809F0BDC08091B001C4
:107CA00087708093E9008091EB001092E900909139
:107CB000E800977F9093E80085FB882780F9809300
:107CC000F1001092F10085C0282F2D7F09F0A3C08C
:107CD000823009F0A0C08091AE01811127C080914F
:107CE000B001877009F497C08093E9002091EB0000
:107CF00020FF1CC0933021F48091EB00806214C0FF
:107D00009091EB0090619093EB0021E030E0A901AD
:107D100002C0440F551F8A95E2F74093EA00109283
:107D2000EA008091EB0088608093EB001092E900FC
:107D30008091E800877F50C081116DC01091AE0125
:107D40001F770FB7F8948091E800877F8093E80051
:107D5000C3DD8091E80080FFFCCF8091E300807854
:107D6000812B8093E30080688093E300111102C0AF
:107D700082E001C083E08EBB0FBF4DC080588230CF
:107D800008F049C0AE014F5F5F4F6091B001809134
:107D9000AE019091AF015BDDBC01892B09F43BC0C2
:107DA0009091E800977F9093E80089819A81B5DEF1
:107DB0008091E8008B778093E8002DC0803859F5DA
:107DC0008091E800877F8093E8008091AA018093EA
:107DD000F1008091E8008E778093E8007DDD1BC084
:107DE000811119C09091AE019230A8F48091E80001
:107DF000877F8093E8009093AA016EDD8091AA01AD
:107E0000811106C08091E30087FD02C081E001C0BE
:107E100084E08EBB41DA8091E80083FF0AC0809144
:107E2000EB0080628093EB008091E800877F809375
:107E3000E8000F900F90DF91CF911F910F9108955F
:107E40000895CF938EB3882359F0C091E900C7708D
:107E50001092E9008091E80083FDFADEC093E9000A
:107E6000CF910895EE0FFF1F0590F491E02D099436
:107E7000F999FECF92BD81BDF89A992780B50895F2
:107E8000262FF999FECF1FBA92BD81BD20BD0FB636
:107E9000F894FA9AF99A0FBE01960895F894FFCFD4
:107EA0007777010000000000000818035300540019
:107EB000490043004C0061006200000022035300AF
:107EC00061006E006700610062006F006100720077
:107ED00064002000760030002E00330020000000F7
:107EE0000403090409023E00020100803209040073
:107EF000000102020100052400100104240204050F
:107F000024060001070582030800FF09040100029E
:107F10000A00000007050402100001070583021093
:107F20000001120110010200000855F0B05A0100D2
:0E7F3000020100014341544552494E410000F8
:040000030000700089
:00000001FF
